:020000040000FA
:101C00002DEF0EF0FFFFFFFF518235EFCAF0FFFF0F
:101C1000FFFFFFFFFFFFFFFF5180D8CF3FF0E8CF6E
:101C200040F0E0CF41F0D9CF42F0DACF43F0F3CF2C
:101C300044F0F4CF45F0F9ECB4F045C0F4FF44C0F3
:101C4000F3FF43C0DAFF42C0D9FF41C0E0FF40C00C
:101C5000E8FF3FC0D8FF51901000CDEF54F0006274
:101C6000065596241770A487CFA9051A40A5DB3D19
:101C7000144459823F346618E584F550D8C3735A2A
:101C8000A89CCBB17802BEBC0764B9AEF3A20AED42
:101C900012FDE108D0ACF4FF7E654F91EBE4797B57
:101CA000FB43FAA1006B61F16FB552F92145373B57
:101CB000991D09D5A7545D1E2E5E4B977249DEC54E
:101CC00060D22D10E3F8CA3398FC7D51CED7BA27E5
:101CD0009EB2BB8388013132118D5B2F813C639AA8
:101CE0002356AB692226C8933A4D76ADF64CFE8555
:101CF000E8C490C67C35046C4ADFEA86E69D8BBD5D
:101D0000CDC780B013D3EC7FC0E746E958922CB71B
:101D1000C916530DD6746D9F205FE28CDC390CDD43
:101D20001FD1B68F5C95B8943E7141251B6AA603FE
:101D30000ECC48152938421CC128D91936B375EE86
:101D400057F09BB4AAF2D4BFA34EDA89C2AF6E2B70
:101D500077E0477A8E2AA06830F7670F0B8AEF008A
:101D60000002000400060008000A000C000E00102B
:101D70000012001400160018001A001C001E00209B
:101D8000002200240026002A002E003000340038F3
:101D9000003C004000440048004C005000540058F3
:101DA000005C006000640068006C007000740078E3
:101DB000007C008000840088008C009000940098D3
:101DC000009C00A200A800AE00B400BA00C000C68B
:101DD00000CC00D200D800DF00E600ED00F400FBEC
:101DE0000002010901100117011E0126012E013612
:101DF000013E0146014E0156015E0166016E017C05
:101E0000018A019801A601B401D001DE01EC01FABA
:101E100001080226024402620280029E02BC02DA2B
:101E200002F80216032A03FF030006010502050358
:101E3000060405050506060705080609050A050B3B
:101E4000050C060D050E050F0510061105120513EC
:101E5000061405150616051705010000000A000006
:101E60000064000000E803000010270000A08601C5
:101E70000040420F008096980000E1F50500CA9AE4
:101E80003B010000001000000000010000001000F5
:101E90000000000100000010000000000100000030
:101EA00010414447484E53555C5F6065696A7277DC
:101EB000787B7E10002000400080000001000200BE
:101EC000041F1C1F1E1F1E1F1F1E1F1E1F7E9F0183
:101ED000E69D013A9B01869F01F49D01509B010103
:101EE00080C200000E010001000105000F12000079
:101EF000E6600101010100420100006245010202A9
:101F000008000F1200005AEC0003010300BB12008E
:101F10000046720104020400BB1200008068010543
:101F2000040300BB1200007E6001060201004201B2
:101F30000000787E0107030100420100002C7E01B1
:101F40000804010042010000E07D010905FF00BB1B
:101F5000120000BE3A010A06FF00BB120000283A38
:101F6000010B07FF00BB1200003828010C08FF001E
:101F7000BB120000E828010D09FF00BB1200008819
:101F800027010E0AFF00BB120000D826010F0BFF2D
:101F900000BB1200002826011001FF005E000000B7
:101FA00078250100E67001018E7001023670010390
:101FB000A4490104FC460105744601061A420107C2
:101FC0008C410108FE4001097040010A3E71010B7D
:101FD000DE6F010C344F010DB64E010ED0F3000F31
:101FE000F8740110866F01112E6F0112D66E011365
:101FF0007E6E0114266E0115CE6D0116766D010000
:102000000104FF00B04A01010205FF00525C010219
:1020100003000200BE8201030400FF00520201041B
:1020200007000400787B01050600FF000ED10006C2
:102030000800A7009239016D61647400000000255A
:102040006D61647200000000266D646E7300000014
:10205000002765646E730000000028646E73000042
:102060000000002A6E747000000000002B707000E9
:1020700000000000000D70690000000000000E6FFD
:10208000720000000000000F6172000000000000FC
:10209000136174000000000000126F4B000000008C
:1020A000000011747372760000000020746E616D80
:1020B0000000000021667265760000000022746254
:1020C000656700000000237462737A00000000243A
:1020D0004400B84D007B00F25301FBFF3C9B0033F2
:1020E000168ADB00F0FF8ADB00F5FFCE9801F8FFCF
:1020F0004C7401F1FF849A01646F6D6E0000000062
:102100001C696D706F000000001D726F6C6500002F
:1021100000001E6B657977000000001F50494331B5
:10212000384639374A36302045544845524E455492
:10213000006E00000000000000016C630000000061
:1021400000000C41646420746865206D756420692A
:102150006E666F004201000001CA80010F1200008C
:1021600002201F014C45442D44696D6D61626C6510
:10217000001AEA00CCF700FA05011E6D01FCD80038
:10218000982901705E01A085012E77656C6C2D6B1E
:102190006E6F776E0056656E646F72204C4544001A
:1021A00056656E646F72204944006E0000000000A6
:1021B000000001982B19932B1A9D2B1B75706474CA
:1021C000000000002C626C6B73697A650055532D1A
:1021D000313233340052657620312E30005265762C
:1021E00020312E300052657620312E3000563132AB
:1021F000333400FFFFFFFFFFFF7E2C01102C020293
:10220000001C8501636F7265000C95013C000A2576
:102210003032782530327825303278253032782DBA
:1022200025303278253032782D25303278253032FD
:10223000782D25303278253032782D2530327825AA
:102240003032782530327825303278253032782592
:10225000303278003C25643E25642025642D252EEF
:1022600032642D252E326454252E32643A252E32C6
:10227000643A252E32645A2025642E25642E256466
:102280002E25642025732025732025732025735B5C
:1022900025735D0D0A00252E386C58252E345825DF
:1022A0002E3458252E3258252E3258252E325825B8
:1022B0002E3258252E3258252E3258252E325825AA
:1022C0002E3258000D0A20427574746F6E205072C1
:1022D0006573733A25642072656D6F76696E672049
:1022E000616E206163747561746F7220200D0A0045
:1022F0000D0A20427574746F6E2050726573733AC4
:10230000256420616464696E67206D616E79206167
:1023100063747561746F7273200D0A000D0A204298
:102320007574746F6E2050726573733A2564204122
:102330006464696E672032206163747561746F72C2
:102340007320200D0A00546F74616C206C656E3A26
:1023500025752020506F72744C656E3A257520618A
:102360006E642073697A656F66203A2575000D0AE0
:1023700020427574746F6E2050726573733A2564D1
:1023800020616464696E6720612073656E736F728B
:1023900020200D0A004A616E4665624D61724170EF
:1023A000724D61794A756E4A756C417567536570F7
:1023B0004F63744E6F76446563000D0A2044657662
:1023C00069636520495020416464726573733A20E3
:1023D00025642E25642E25642E2564200D0A0045D3
:1023E0004550524F4D2053746F72616765204368AA
:1023F00065636B73756D203D203078252E34582031
:102400000D0A000D0A2041646465642074776F2012
:102410006163747561746F72207265736F75726336
:102420006573200D0A0073797344657363722E30EF
:10243000203D20535452494E473A203C3C506F7245
:10244000745F446573633A20004366456C656D654F
:102450006E74732E61727261795F6D61705F656C0D
:10246000656D656E74733D25640D0A000D0A20418B
:10247000646465642061206E65772053656E736FB8
:1024800072205265736F75726365200D0A00507279
:102490006576696F7573204669726D776172652024
:1024A000496D61676520457261736564200D0A009E
:1024B000504943313820466C617368204368656336
:1024C0006B73756D203D203078252E3458200D0A11
:1024D000004366456C656D656E74732E6172726142
:1024E000795F656C656D656E74733D25640D0A00DA
:1024F000253032783A253032783A253032783A250C
:102500003032783A253032783A25303278000A0A6B
:102510005374617274696E67205379736C6F6720AE
:10252000617420256C75200D0A004461746162613C
:102530007365206372656174696F6E204661696CB2
:102540007572650D0A000D0A204164646564206E91
:102550006577205265736F7572636573200D0A008D
:102560004D414320454550524F4D20496E69746995
:10257000616C697A65642E0D0A000D0A2052656D42
:102580006F7665642041205265736F7572636520B4
:102590000D0A0072657573696E67207361766564F4
:1025A0002064617461626173650A004372656174DD
:1025B000652061206E657720646174616261736576
:1025C0000A0053656E736F724D6F64656C4465737A
:1025D0006372697074696F6E00454550524F4D20AB
:1025E000436865636B73756D3D3078252E325800F6
:1025F00053756E4D6F6E54756557656454687546B6
:102600007269536174004661696C6564204F706340
:102610006F6465203D202564200D0A004275696CB9
:1026200064696E67312F48616C6C7761792D313048
:102630003200504943313820436865636B73756DD0
:102640003D3078252E3258004541506F6C5F504127
:10265000434B45545F4641494C5552450038303252
:102660002E33206C656E6774682030782530346CAA
:10267000580069636D702077726F6E6720636B73AB
:102680006D203A202578002F7372762F746674704F
:102690002F646F744E65742E62696E004445535406
:1026A0005F49505F4E4F545F4D415443484544008D
:1026B000495056345F434845434B53554D5F46415F
:1026C000494C530049434D505F434845434B535594
:1026D0004D5F4641494C53006C6967687431372E31
:1026E0006578616D706C652E636F6D005544505F49
:1026F0005374617274204661696C65640D0A00410F
:1027000052505F49505F4E4F545F4D4154434845CE
:102710004400504F52545F4E4F545F415641494C14
:1027200041424C45005443505F434845434B535549
:102730004D5F4641494C53005544505F4348454323
:102740004B53554D5F4641494C53003830322E3380
:1027500020747970652030782530346C58004461DD
:1027600074616261736520637265617465640D0AEA
:102770000054585F4C4F4749435F4E4F545F4944A4
:102780004C450064383A38303A33393A38383A31BF
:10279000393A6238003031323334353637383941DE
:1027A00042434445460030313233343536373839C8
:1027B0006162636465660049505F57524F4E475FE0
:1027C00056455253494F4E0054252E32643A252E19
:1027D00032643A252E32645A004372656174696E20
:1027E000672055554944200D0A00757569645F736B
:1027F0007472203D202573200D0A0077726974657C
:10280000466C61673D3078252E325800506F7274E7
:102810004465736372697074696F6E0048617264B5
:10282000776172655265765368657600626F6F7482
:10283000466C61673D3078252E3258004C494E4B2E
:102840005F4E4F545F464F554E4400436F6E6E656A
:10285000637465644C6967687400446174653A2008
:1028600025642D25642D25640054696D653A202565
:10287000643A25643A2564004D41435F4E4F545FEE
:10288000464F554E44004275696C64696E67315F0E
:10289000424D53004D616E75666163747572657269
:1028A000002025642E25642E25642E2564002564D1
:1028B0002D252E32642D252E3264003139322E31F1
:1028C00036382E312E343400456E64705074416CAD
:1028D000744B6579003139322E3136382E302E3135
:1028E00032004920616D2073656375726500466929
:1028F000726D7761726552657600536F66747761A9
:10290000726552657600444D415F54494D454F55BF
:1029100054004255464645525F42555359004C6952
:1029200067687453656E736F72003139322E3136B9
:10293000382E302E32002E77656C6C2D6B6E6F77D3
:102940006E00466C617368696E67200D0A006163F2
:10295000747561746F723130006163747561746F86
:10296000723131006163747561746F72313200616C
:1029700063747561746F723133006163747561746F
:102980006F723134006163747561746F7231350038
:102990003B2056454E444F523A20003B2046575F5D
:1029A0005245563A20003B2048575F5245563A2040
:1029B000003B2053575F5245563A200056312E3285
:1029C00035616C70686100456E645074436C61736E
:1029D0007300436F756E743D25640D0A0054656D78
:1029E0007053656E736F720044464453756363653C
:1029F0007373006163747561746F72310061637425
:102A00007561746F7232006163747561746F7233D3
:102A1000006163747561746F723400616374756111
:102A2000746F7235006163747561746F7236006122
:102A300063747561746F7237006163747561746F6C
:102A40007238006163747561746F7239004D6F6420
:102A5000656C4E616D650053657269616C4E756D94
:102A6000003B204D4F44454C3A200035392E37323B
:102A70002E302E30004D435538456E64507400564C
:102A8000657273696F6E2D31006163747561746F67
:102A9000727300696E76656E746F7279004C6F6E3A
:102AA000646F6E45796500536F6D654C6967687436
:102AB000006E657461736369690041424344453146
:102AC0003233006C6F636174696F6E006964656EA8
:102AD0007469747900414142424343444400736540
:102AE0006E736F72310073656E736F723200417373
:102AF00073657449440053554343455353003C2583
:102B0000643E25642000302E302E302E30006E655D
:102B100074776F726B0073656E736F727300636F9F
:102B20006E7465787400286E756C6C290076312E91
:102B3000302E3100322E393546320067726F757093
:102B400031006F63746574004552524F5200636FD9
:102B50006C6F7200726F6C653D006B6579773D003C
:102B60004152524159006D61696C002025735B0030
:102B7000656D61630065616472006D61647200651A
:102B8000646E73006D646E730065616474006D61E2
:102B900064740065636C6100656E616D00616B65F6
:102BA000790075706474007462656700746E616D9D
:102BB00000667265760074737276007462737A00D0
:102BC0003137303000415343540053434E54006D6D
:102BD0006F646C007061796C00736E756D002573A5
:102BE000257300726F6F74006D616E750066777289
:102BF000760068777276007377727600726F6C6514
:102C000000646F6D6E00696D706F006B65797700A1
:102C100075756964004B484550004B494458005253
:102C20005352430045434E54004F434E54005143CA
:102C30004E540056434E540045494458004F4944B1
:102C4000580051494458005649445800636F726512
:102C5000006D63687000202573006E74700035315C
:102C60003200256C78004D415000256C75004446BB
:102C7000440044465500646664003E3E00456500DD
:102C80006F6B00636C003930006F4B006C63007039
:102C900069007070006172003E2C002E005D002DF6
:102CA000002F003C000020EE0AF0D851D926D9515F
:102CB000DA22DECF60F0DECF61F0DECF62F0DECF71
:102CC00063F07AEC96F060C066F461C067F40401CA
:102CD00066510B0DA90E0001DA6F080EDB6FF35081
:102CE000DA27F450DB23040166511B0D170EF32481
:102CF000D96E060EF420DA6EDAC0DEFFDBC0DDFF2F
:102D000066510B0D930E0001DA6F080EDB6FF35066
:102D1000DA27F450DB23040166511B0D190EF3244E
:102D2000D96E060EF420DA6EDAC0DEFFDBC0DDFFFE
:102D300066511B0D190EF324D96E060EF420DA6EBF
:102D4000DECF6AF4DDCF6BF466511B0D170EF32452
:102D5000D96E060EF420DA6EDECF68F4DDCF69F4AA
:102D600066511B0D0C0EF324D96E060EF420DA6E9C
:102D7000000EDE6E000EDD6E66511B0D150EF32487
:102D8000D96E060EF420DA6E10EE09F06A51E126D3
:102D90006B51E222DECFE6FFDDCFE5FF010E93ECC3
:102DA000CCF0010E0001606F040166511B0D080E8E
:102DB000F324D96E060EF420DA6EDF500001616F45
:102DC000040166511B0D060EF324D96E060EF42085
:102DD000DA6EDF50F1EC9FF060C027F161C028F19E
:102DE00062C029F163C02AF1000E8F6F010E906F4F
:102DF0006A0E916F2C0E926F27C193F028C194F048
:102E000029C195F02AC196F085ECC5F0000E9E6FA1
:102E1000010E9F6FE7ECCDF0FF0E08ECCFF0040140
:102E200066511B0D140EF324D96E060EF420DA6ED3
:102E3000DF50D8B40ED066511B0D080EF324D96EA6
:102E4000060EF420DA6EDE50DE10DE10DE10D8A49E
:102E50005AD020EE08F06A51D9266B51DA2210EED2
:102E600008F06851E1266951E222DFCFE7FF6AC42A
:102E7000D9FF6BC4DAFF68C4E1FF69C4E2FFDECFAB
:102E8000E6FFDDCFE5FF20EE02F06A51D9266B5157
:102E9000DA2210EE02F06851E1266951E222DECF1B
:102EA000E6FFDDCFE5FF20EE04F06A51D9266B5135
:102EB000DA2210EE04F06851E1266951E222DECFF9
:102EC000E6FFDDCFE5FF20EE06F06A51D9266B5113
:102ED000DA2210EE06F06851E1266951E222DECFD7
:102EE000E6FFDDCFE5FF20EE09F06A51D9266B51F0
:102EF000DA2210EE09F06851E1266951E222DECFB4
:102F0000E6FFDDCFE5FF000E0001606F010E616F8F
:102F1000000E636F000E626F000E656F230E646F0C
:102F2000D1ECC0F0040166511B0D140EF324D96ED0
:102F3000060EF420DA6EDE04D8A45AD020EE08F093
:102F40006851D9266951DA2210EE08F06A51E1265B
:102F50006B51E222DFCFE7FF68C4D9FF69C4DAFF13
:102F60006AC4E1FF6BC4E2FFDECFE6FFDDCFE5FF21
:102F700020EE02F06851D9266951DA2210EE02F0F3
:102F80006A51E1266B51E222DECFE6FFDDCFE5FF9D
:102F900020EE04F06851D9266951DA2210EE04F0CF
:102FA0006A51E1266B51E222DECFE6FFDDCFE5FF7D
:102FB00020EE06F06851D9266951DA2210EE06F0AB
:102FC0006A51E1266B51E222DECFE6FFDDCFE5FF5D
:102FD00020EE09F06851D9266951DA2210EE09F085
:102FE0006A51E1266B51E222DECFE6FFDDCFE5FF3D
:102FF00020EE09F06A51D9266B51DA22DE50DE103C
:10300000D8B4AAD020EE08F06A51D9266B51DA2242
:10301000DF50D8A496D02D0E00016E6F010E6F6F99
:10302000040120EE06F06A51D9266B51DA22DECF78
:1030300070F0DDCF71F0DAECB0F0040120EE09F0B1
:103040006A51D9266B51DA22010EDB5004E1020EDF
:10305000DE5CD8A052D0000E00018E6F010E8F6F83
:103060002EC188F02FC189F01CECC0F088C090F010
:1030700089C091F0000E936F200E926FDDECA5F0E9
:10308000000E8A6F010E8B6FF5ECC0F08A510101C2
:10309000236F040120EE09F06A51D9266B51DA2220
:1030A000DF500001DA6FDA510101235D0001DB6FAF
:1030B000DB290101246F000E00018E6F010E8F6F5E
:1030C0002EC188F02FC189F01CECC0F00101245101
:1030D00000018825906F0101000E00018921916F88
:1030E000040120EE09F06A51D9266B51DA22DECFB5
:1030F00092F0DDCF93F0DDECA5F0000E00018E6FB5
:10310000010E8F6FA10E906F2C0E916F000E936FBA
:10311000010E926F1EECA6F0000E8A6F010E8B6FEF
:10312000F5ECC0F08AC02BF18BC02CF1000E946F2F
:10313000010E956F2BC196F02CC197F0D6EC51F093
:103140000BD0980E0001946F2C0E956F000E976FA8
:10315000020E966FD6EC51F0410E0001606F010E29
:10316000616FDDECA6F07BD16AC4D9FF6BC4DAFFD6
:10317000040110EE04F06A51E1266B51E222DE50A8
:10318000E65CE650800A0001DE6FDE50800ADE5900
:10319000D8A065D1790E766F010E776F040120EE0D
:1031A00004F06A51D9266B51DA22DECF78F0DDCFF8
:1031B00079F068EC7BF06AC4D9FF6BC4DAFF0401D4
:1031C00010EE04F06A51E1266B51E222DE50E6185F
:1031D00004E1DE50E618D8B4A6D0000E00018E6FD0
:1031E000010E8F6FA30E906F2C0E916F000E936FD8
:1031F000010E926FDDECA5F096D0040120EE06F0F2
:103200006A51D9266B51DA2210EE02F06A51E1269A
:103210006B51E222DE50E65CE650800A0001DE6F70
:10322000DE50800ADE59D8B07ED02D0E6E6F010EB2
:103230006F6F040120EE06F06A51D9266B51DA2235
:10324000DECF70F0DDCF71F0DAECB0F0000E8E6FF3
:10325000010E8F6F2EC188F02FC189F01CECC0F0D9
:1032600088C090F089C091F02EC188F02FC189F0FC
:103270001CECC0F088C08AF089C08BF0F5ECC0F07F
:103280008AC092F08BC093F01EECA6F0000E8E6FF9
:10329000010E8F6FA10E906F2C0E916F000E936F29
:1032A000010E926F1EECA6F0000E8A6F010E8B6F5E
:1032B000F5ECC0F08AC02BF18BC02CF1000E946F9E
:1032C000010E956F2BC196F02CC197F0D6EC51F002
:1032D0000009D8B428D0040120EE04F06A51D926A0
:1032E0006B51DA226AC4E1FF6BC4E2FFDECFE6FF76
:1032F000DDCFE5FF20EE06F06A51D9266B51DA22C8
:1033000010EE02F06A51E1266B51E222DECFE6FFB9
:10331000DDCFE5FF20EE08F06A51D9266B51DA22A5
:10332000000EDF6E1200790E0001BE6F010EBF6F3E
:10333000A3EC90F0040120EE06F06A51D9266B51FF
:10334000DA220001BEC0DEFFBFC0DDFFDE2802E1E1
:10335000DE28D8A452D7040120EE08F06A51D926FD
:103360006B51DA22010EDF6E000E0001606F010E5C
:10337000616F000E636F000E626F000E656F230EAB
:10338000646FD1ECC0F0000E8E6F010E8F6F980E3F
:10339000906F2C0E916F000E936F020E926FDDEC0A
:1033A000A5F0000E8A6F010E8B6FF5ECC0F08AC09D
:1033B0002BF18BC02CF1000E946F010E956F2BC179
:1033C00096F02CC197F0D6EC51F00009D8B420D07B
:1033D000040120EE04F06A51D9266B51DA226AC446
:1033E000E1FF6BC4E2FFDECFE6FFDDCFE5FF20EEBD
:1033F00006F06A51D9266B51DA2210EE02F06A51BA
:10340000E1266B51E222DECFE6FFDDCFE5FF1200C1
:10341000040120EE04F06A51D9266B51DA22000E25
:10342000DE6E000EDD6E6AC4E1FF6BC4E2FFDECF2C
:10343000E6FFDDCFE5FF20EE06F06A51D9266B519D
:10344000DA22000EDE6E000EDD6E10EE02F06A5122
:10345000E1266B51E222DECFE6FFDDCFE5FF410E34
:103460000001BE6F010EBF6FA3EC90F0040120EECF
:1034700004F06A51D9266B51DA220001BEC0DEFF8A
:10348000BFC0DDFFDE2802E1DE28D8A46DD604012E
:1034900020EE04F06A51D9266B51DA22DE2802E1CF
:1034A000DE28D8A4120020EE08F06A51D9266B510C
:1034B000DA22DF50D8A42ED020EE08F06A51D926A7
:1034C0006B51DA22010EDF6E000E00018E6F010ECD
:1034D0008F6F980E906F2C0E916F000E936F020EEF
:1034E000926F1EECA6F0000E8A6F010E8B6FF5EC4A
:1034F000C0F08AC02BF18BC02CF1000E946F010E2E
:10350000956F2BC196F02CC197F0D6EC51F00009C5
:10351000D8A41200000E93ECCCF0000E0001606FF6
:10352000040166511B0D080EF324D96E060EF4201B
:10353000DA6EDF500001616F040166511B0D060E4B
:10354000F324D96E060EF420DA6EDF50F1EC9FF012
:1035500060C027F161C028F162C029F163C02AF17F
:1035600027C160F028C161F029C162F02AC163F06F
:1035700008ECC9F0DA6FDA510101256F266B27C11B
:1035800060F028C161F029C162F02AC163F025C151
:1035900064F0B5EC60F060C027F161C028F162C052
:1035A00029F163C02AF1D8C098F0D9C099F0270E4C
:1035B0009A6F010E9B6F25C19CF026C19DF0ADEC6A
:1035C000BFF0AC0E606F050E616FF7ECB8F0020E45
:1035D0006025DA6F000E6121DB6F000E6221DC6F67
:1035E000000E6321DD6F040166511B0D100EF324E4
:1035F000D96E060EF420DA6EDAC0DEFFDBC0DEFF25
:10360000DCC0DEFFDDC0DEFF120098EF1FF0250EEC
:103610008E19D8B432D07651D96EDA6A020ED92614
:10362000DE50DE10DE10D8B413D07651D96EDA6ACF
:10363000020ED92602D898EF1FF00500FA6EDE5070
:10364000FD6EDE50FE6EDE50FF6EFA508E5112009F
:103650007651D96EDA6ADECF7AF0DDCF7BF07AC0B0
:10366000D9FF7BC0DAFF8EC0DFFF7651D96EDA6AF0
:10367000DE2A000EDD2298EF1FF0000E8B6F000E89
:103680008A6F000E896F03D08985774B782B77C0BE
:10369000F6FF78C0F7FF000EF86E0800F550300A0C
:1036A000D8B4F2D777C0F6FF78C0F7FF000EF86EF7
:1036B0000800F55016ECCCF0D8A036D0000E8B6F79
:1036C000000E8A6F8AC060F08BC061F0000E636FDD
:1036D0000A0E626FC0ECCAF060C08AF061C08BF065
:1036E000D00E7A6FFF0E7B6F77C0F6FF78C0F7FFC2
:1036F000000EF86E0800F5507C6F7D6B7A517C27C8
:103700007B517D237C518A277D518B23774B782BEE
:1037100077C0F6FF78C0F7FF000EF86E0800F5508E
:1037200016ECCCF0D8B0CED777C0F6FF78C0F7FF54
:10373000000EF86E0800F5502E0AD8A43AD0774B48
:10374000782B000E8D6F000E8C6F26D08CC060F031
:103750008DC061F0000E636F0A0E626FC0ECCAF09C
:1037600060C08CF061C08DF0D00E7A6FFF0E7B6F61
:1037700077C0F6FF78C0F7FF000EF86E0800F5502E
:103780007C6F7D6B7A517C277B517D237C518C270C
:103790007D518D23774B782B77C0F6FF78C0F7FFEC
:1037A000000EF86E0800F55016ECCCF0D8A0FFD053
:1037B000CDD7000E8D6F000E8C6FF9D08989F7D0B0
:1037C000898B898F19D17951D96EDA6A020EDF2679
:1037D000DF5CD96EDA6ADECF81F0DECF82F0815114
:1037E0008211D8A404D0260E816F2B0E826F000E9A
:1037F000846F000E836F03D00001834B842B8351B1
:1038000081257A6F845182217B6F7AC0F6FF7BC05D
:10381000F7FF000EF86E0F0EF76403D00800F550A6
:1038200005D0F6CFE9FFF7CFEAFFEF500009D8A4A3
:10383000E3D700018C518D11D8B40ED083518C5D2B
:103840008D51800A7A6F8451800A7A59D8B004D099
:103850008CC083F08DC084F08A51835D8B51845974
:10386000D8B005D083518A5F84518B5B34D0000E71
:103870008B6F000E8A6F2FD07651D96EDA6A020EE6
:10388000D926DE50DE10DE10D8B412D07651D96EB3
:10389000DA6A020ED92601D81ED00500FA6EDE5073
:1038A000FD6EDE50FE6EDE50FF6EFA50200E1200EE
:1038B0007651D96EDA6ADECF7AF0DDCF7BF07AC04E
:1038C000D9FF7BC0DAFF200EDF6E7651D96EDA6A3F
:1038D000DE2A000EDD2200018A07D8A08B078A2984
:1038E000CBE18B29D8B457D0C7D77651D96EDA6AD5
:1038F000020ED926DE50DE10DE10D8B426D0765166
:10390000D96EDA6A020ED92601D81BD00500FA6EEC
:10391000DE50FD6EDE50FE6EDE50FF6EFA5081C04E
:10392000F6FF82C0F7FF000EF86E0F0EF76403D0AB
:103930000800F55005D0F6CFE9FFF7CFEAFFEF50CA
:1039400012000001814B822B26D081C0F6FF82C07D
:10395000F7FF000EF86E7651D96EDA6ADECF7AF094
:10396000DDCF7BF07AC0D9FF7BC0DAFF0F0EF764A2
:1039700003D00800F55005D0F6CFE9FFF7CFEAFFF6
:10398000EF50DF6E0001814B822B7651D96EDA6ADF
:10399000DE2A000EDD228307D8A084078329A5E153
:1039A0008429D8B4C5D2A1D7C00E891325D077C039
:1039B000F6FF78C0F7FF774B782B000EF86E080003
:1039C000F5CF8EF08E51000AD8B4C2D2580AD8B4BE
:1039D000F7D63C0AD8B410D00D0AD8B40DD0050AD9
:1039E000D8B4ECD61F0AD8B4EED6060AD8B4DCD7C1
:1039F0000D0AD8B4E6D69CD289C07AF0C00E7A17E8
:103A0000D8A431D089A911D07951D96EDA6A040EBF
:103A1000DF26DF5CD96EDA6ADECF85F0DECF86F096
:103A2000DECF87F0DECF88F011D07951D96EDA6A17
:103A3000DF50DF2ADF2AD96EDA6ADECF85F0DDCFEC
:103A400086F0000E86BFFF0E876F886F88AF30D07C
:103A5000030E8913881F871F861F856D000E86231E
:103A60008723882325D089A911D07951D96EDA6AA4
:103A7000040EDF26DF5CD96EDA6ADECF85F0DECF9A
:103A800086F0DECF87F0DECF88F012D07951D96E84
:103A9000DA6ADF50DF2ADF2AD96EDA6ADECF7AF0FF
:103AA000DDCF7BF07AC085F07BC086F0876B886BBA
:103AB0008C518D11D8A44BD0855186118711881156
:103AC000D8A445D08C4B8D2B42D0010E8E6F8E51D9
:103AD000040D590EF324F66E1E0EF420F76EF86AEC
:103AE000000EF8220900F550855D0900F550865951
:103AF0000900F55087590900F5508859D8A032D0EF
:103B00008E2B0A0E8E19D8B42DD0E1D7010E8E6FF0
:103B10008E51040D810EF324F66E1E0EF420F76E06
:103B2000F86A000EF8220900F550855D0900F5508D
:103B300086590900F55087590900F5508859D8A0D1
:103B400011D08E2B080E8E19D8B40CD0E1D7895124
:103B5000C00B000AD8B4B9D7800AD8B4D7D7400A66
:103B6000D8B4B3D78E517A6F7B6B8C517A5D7B5111
:103B7000800A7C6F8D51800A7C59D8B003D08CC0EC
:103B80008EF010D08E517A6F7B6B7A518C5D8D5197
:103B9000800A7C6F7B51800A7C59D8B003D08EC0DC
:103BA0008CF08D6B8A518B11D8B409D089C07AF012
:103BB000030E7A17D8B403D08A07D8A08B078E518A
:103BC0007A6F7B6B8A517A5D7B51800A7C6F8B5157
:103BD000800A7C59D8B005D08E518A5F000E8B5B6D
:103BE00004D0000E8B6F000E8A6F89A56ED089C03D
:103BF0007AF0030E7A17D8B42FD07651D96EDA6ADC
:103C0000020ED926DE50DE10DE10D8B412D0765166
:103C1000D96EDA6A020ED92601D81ED00500FA6ED6
:103C2000DE50FD6EDE50FE6EDE50FF6EFA502D0E41
:103C300012007651D96EDA6ADECF7AF0DDCF7BF0F2
:103C40007AC0D9FF7BC0DAFF2D0EDF6E7651D96EB8
:103C5000DA6ADE2A000EDD2200018A518B11D8B407
:103C60005ED17651D96EDA6A020ED926DE50DE10A8
:103C7000DE10D8B412D07651D96EDA6A020ED92687
:103C800001D81ED00500FA6EDE50FD6EDE50FE6ECD
:103C9000DE50FF6EFA50300E12007651D96EDA6A9D
:103CA000DECF7AF0DDCF7BF07AC0D9FF7BC0DAFFC0
:103CB000300EDF6E7651D96EDA6ADE2A000EDD2212
:103CC00000018A07D8A08B07C8D78A518B11D8B4B6
:103CD00037D07651D96EDA6A020ED926DE50DE1060
:103CE000DE10D8B412D07651D96EDA6A020ED92617
:103CF00001D81ED00500FA6EDE50FD6EDE50FE6E5D
:103D0000DE50FF6EFA50200E12007651D96EDA6A3C
:103D1000DECF7AF0DDCF7BF07AC0D9FF7BC0DAFF4F
:103D2000200EDF6E7651D96EDA6ADE2A000EDD22B1
:103D300000018A07D8A08B078A518B11D8A4C9D754
:103D400089C07AF0030E7A17D8B4E9D07651D96ECB
:103D5000DA6A020ED926DE50DE10DE10D8B412D098
:103D60007651D96EDA6A020ED92601D8D8D005006C
:103D7000FA6EDE50FD6EDE50FE6EDE50FF6EFA50C3
:103D80002D0E12007651D96EDA6ADECF7AF0DDCFD1
:103D90007BF07AC0D9FF7BC0DAFF2D0EDF6EB9D081
:103DA0008CC07AF08DC07BF0D8907A377B37D89072
:103DB0007A377B37590E7A25F66E1E0E7B21F76E09
:103DC000F86A000EF8220900F5CF64F00900F5CF7B
:103DD00065F00900F5CF66F00A00F5CF67F085C001
:103DE00060F086C061F087C062F088C063F09BEC31
:103DF000A5F060C06DF061C06EF062C06FF063C08E
:103E000070F00A0E716F000E726F000E736F000E6D
:103E1000746FA7ECB0F06D51300F8E6F51D085C02C
:103E200060F086C061F087C062F088C063F08CC02B
:103E30007AF08DC07BF0D8907A377B37D8907A377C
:103E40007B37810E7A25F66E1E0E7B21F76EF86A9F
:103E5000000EF8220900F5CF64F00900F5CF65F0F7
:103E60000900F5CF66F00A00F5CF67F09BECA5F0EE
:103E700060510F0B7E6F89BB04D0A60E7F6F270E9B
:103E800003D0950E7F6F270E806F7E517F257A6F4E
:103E9000000E80217B6F7AC0F6FF7BC0F7FF000E1B
:103EA000F86E0800F5CF8EF00BD08951C00B000AD8
:103EB000D8B476D7800AD8B4B2D7400AD8B470D76D
:103EC0007651D96EDA6A020ED926DE50DE10DE1087
:103ED000D8B412D07651D96EDA6A020ED92601D83A
:103EE0001ED00500FA6EDE50FD6EDE50FE6EDE5016
:103EF000FF6EFA508E5112007651D96EDA6ADECF1B
:103F00007AF0DDCF7BF07AC0D9FF7BC0DAFF8EC0BC
:103F1000DFFF7651D96EDA6ADE2A000EDD2200015B
:103F20008C07D8A08D078C29C0E18D29D8A4BDD7D6
:103F300077C0F6FF78C0F7FF0001774B782B000EB3
:103F4000F86E0800F5CF8EF08E51D8A407EF1BF065
:103F5000000E776F000E766F1200000E0101066FE3
:103F6000CAECBEF060C007F161C008F104018839F5
:103F7000030BE806D8A40AD0450E8919D8A406D0A8
:103F80000101072903E10829D8B479D0EDC0D9FF90
:103F9000EEC0DAFFFF0E040100110001F46FFF0E06
:103FA000040101110001F56FFF0E0401021100016F
:103FB000F66F000E040103110001F76FDE50F419D3
:103FC0000AE1DE50F51907E1DE50F61904E1DE5092
:103FD000F719D8B454D0EDC0D9FFEEC0DAFFFF0E08
:103FE000040100110001F46FFF0E04010111000132
:103FF000F56F000E040102110001F66F000E0401BE
:1040000003110001F76FDE50F4190AE1DE50F519D3
:1040100007E1DE50F61904E1DE50F719D8B42FD0CD
:10402000EDC0D9FFEEC0DAFFFF0E04010011000160
:10403000F46F040101510001F56F04010251000108
:10404000F66F040103510001F76FDE50F4190AE125
:10405000DE50F51907E1DE50F61904E1DE50F719DC
:10406000D8B40DD0EDC0D9FFEEC0DAFFDE2806E1EE
:10407000DE2804E1DE2802E1DE28D8A4FBD0440ECD
:104080000001606F070E616F000E636F000E626FBC
:10409000000E656F3B0E646FD1ECC0F004018851D7
:1040A000CF0B1009886F440E00018A6F070E8B6FCB
:1040B000880E8C6F040E8D6F000E8F6F020E8E6F48
:1040C000E8ECC1F0EDC0D9FFEEC0DAFFDECF56F765
:1040D000DECF57F7DECF58F7DECF59F720EE0DF0E1
:1040E000ED51D926EE51DA22DECF46F7DDCF47F784
:1040F00020EE17F0ED51D926EE51DA22DF500701FC
:10410000776F000120EE13F0ED51D926EE51DA223F
:10411000DECF73F7DDCF74F720EE15F0ED51D92621
:10412000EE51DA22DECF75F7DDCF76F720EE17F00D
:10413000ED51D926EE51DA22DF500701776F0001E9
:1041400020EE18F0ED51D926EE51DA22DECF78F7C5
:10415000DDCF79F720EE1AF0ED51D926EE51DA22B3
:10416000DF5007017A6F000E7B6F000E7C6F00013D
:1041700020EE0CF0ED51D926EE51DA22DF50F06F2F
:10418000070144510001F019F00BF0190701446FC9
:104190004E0E00018A6F070E8B6F040EED258C6F9B
:1041A000000EEE218D6F20EE0CF0ED51D926EE5170
:1041B000DA22DF50F06FF0518E6F8F6BE8ECC1F0B8
:1041C000440E666F070E676F8FECC7F0440E686F82
:1041D000070E696FCFECA8F0040EED258A6F000E74
:1041E000EE218B6F4E0E8C6F070E8D6F07014451C1
:1041F0000F0B0001F06FF0518E6F8F6BE8ECC1F088
:10420000440EE96F070EEA6F33EC8FF00101066F81
:104210000605D8A4A1D2440E00019E6F070E9F6F21
:104220006DECAAF007017705D8A412D0000120EEAA
:1042300011F0ED51D926EE51DA22DECF4AF7DDCF6B
:104240004BF7440E666F070E676FBEECCDF084D25D
:10425000000120EE0FF0ED51D926EE51DA22DECF2B
:1042600048F7DDCF49F7440E666F070E676F15EC10
:10427000C4F072D2020E606F010E616FF7ECB8F0FD
:104280000101072903E10829D8B466D207C160F00B
:1042900008C161F0000E0001636F3B0E626FC0EC5D
:1042A000CAF0020E6025D96E080E6121DA6E88C44C
:1042B000DEFF89C4DDFFEDC0D9FFEEC0DAFF07C124
:1042C00060F008C161F0000E636F3B0E626FC0ECDE
:1042D000CAF0140E6025E16E080E6121E26EDECF99
:1042E000E6FFDECFE6FFDECFE6FFDECFE6FF20EE25
:1042F0000DF0ED51D926EE51DA2207C160F008C168
:1043000061F0000E636F3B0E626FC0ECCAF0040EEA
:104310006025E16E080E6121E26EDECFE6FFDDCFA3
:10432000E5FF20EE17F0ED51D926EE51DA2207C154
:1043300060F008C161F0000E636F3B0E626FC0EC6D
:10434000CAF0350E6025E16E080E6121E26EDFCF06
:10435000E7FF07C160F008C161F0000E636F3B0E1C
:10436000626FC0ECCAF0350E6025D96E080E61216F
:10437000DA6EDE04D8A415D020EE11F0ED51D92666
:10438000EE51DA2207C160F008C161F0000E636FE0
:104390003B0E626FC0ECCAF0080E6025E16E080E9D
:1043A00014D020EE0FF0ED51D926EE51DA2207C1DC
:1043B00060F008C161F0000E636F3B0E626FC0ECED
:1043C000CAF0060E6025E16E080E6121E26EDECFB6
:1043D000E6FFDDCFE5FF20EE13F0ED51D926EE51DB
:1043E000DA2207C160F008C161F0000E636F3B0E76
:1043F000626FC0ECCAF0310E6025E16E080E6121DB
:10440000E26EDECFE6FFDDCFE5FF20EE15F0ED51E9
:10441000D926EE51DA2207C160F008C161F0000E22
:10442000636F3B0E626FC0ECCAF0330E6025E16E25
:10443000080E6121E26EDECFE6FFDDCFE5FF20EE64
:1044400017F0ED51D926EE51DA2207C160F008C10C
:1044500061F0000E636F3B0E626FC0ECCAF0350E68
:104460006025E16E080E6121E26EDFCFE7FF20EEEE
:1044700018F0ED51D926EE51DA2207C160F008C1DB
:1044800061F0000E636F3B0E626FC0ECCAF0360E37
:104490006025E16E080E6121E26EDECFE6FFDDCF22
:1044A000E5FF20EE1AF0ED51D926EE51DA2207C1D0
:1044B00060F008C161F0000E636F3B0E626FC0ECEC
:1044C000CAF0380E6025E16E080E6121E26EDFCF82
:1044D000E7FF07C160F008C161F0000E636F3B0E9B
:1044E000626FC0ECCAF0390E6025D96E080E6121EA
:1044F000DA6EEFC0DFFF07C160F008C161F0000EA7
:10450000636F3B0E626FC0ECCAF03A0E6025D96E45
:10451000080E6121DA6E000EDF6E20EE0CF0ED5118
:10452000D926EE51DA22DF50F06F07C160F008C1E2
:1045300061F0000E636F3B0E626FC0ECCAF0020EBA
:104540006025D96E080E6121DA6E0801DF50000186
:10455000F019F00BF0190801DF6E07C160F008C117
:1045600061F0000E0001636F3B0E626FC0ECCAF099
:104570000C0E60258A6F080E61218B6F040EED25ED
:104580008C6F000EEE218D6F20EE0CF0ED51D926D0
:10459000EE51DA22DF50F06FF0518E6F8F6BE8EC46
:1045A000C1F007C160F008C161F0000E636F3B0EFF
:1045B000626FC0ECCAF0020E6025666F080E6121C2
:1045C000676F8FECC7F007C160F008C161F0000EA3
:1045D000636F3B0E626FC0ECCAF0020E6025686F1D
:1045E000080E6121696FCFECA8F0040EED258A6FEB
:1045F000000EEE218B6F07C160F008C161F0000E64
:10460000636F3B0E626FC0ECCAF00C0E60258C6FBE
:10461000080E61218D6F07C160F008C161F0000EC6
:10462000636F3B0E626FC0ECCAF0020E6025D96E5C
:10463000080E6121DA6E0801DF500F0B0001F06FE8
:10464000F0518E6F8F6BE8ECC1F007C160F008C1CC
:1046500061F0000E636F3B0E626FC0ECCAF0020E99
:1046600060256A6F080E61216B6F02C16CF003C197
:104670006DF004C16EF005C16FF06BEC4BF00009FA
:10468000D8B46AD007C160F008C161F0000E636F52
:104690003B0E626FC0ECCAF0020E60250101006F94
:1046A000080E000161210101016F00C1E9F001C1A3
:1046B000EAF033EC8FF00101066F0605D8A44CD068
:1046C00007C160F008C161F0000E0001636F3B0E8E
:1046D000626FC0ECCAF0020E60259E6F080E612169
:1046E0009F6F6DECAAF007C160F008C161F0000E89
:1046F0000001636F3B0E626FC0ECCAF0350E60259F
:10470000D96E080E6121DA6EDE04D8A413D007C179
:1047100060F008C161F0000E636F3B0E626FC0EC89
:10472000CAF0020E6025666F080E6121676FBEEC4D
:10473000CDF012D007C160F008C161F0000E636FC8
:104740003B0E626FC0ECCAF0020E6025666F080E69
:104750006121676F15ECC4F0010106511200C70E0C
:104760000001606F616B000E636F1C0E626FCBEC1B
:10477000B8F060C0BDF061C0BEF01C0E0001BD19F4
:10478000BE11D8A41200000EBF6F000EC56F0E0E32
:10479000C66FC751966F956BC851976F986B9551BF
:1047A00097139651981397059811D8A41200C951E0
:1047B000966F956B20EEC9F0DECF97F0DDCF98F0C5
:1047C00098C097F0986BFF0E9717000E98179551A9
:1047D000971396519813080E98199711D8A41200A0
:1047E000060ECB19D8A41200040ECC19D8A41200BE
:1047F000080EC36F20EE06F0C551D926C651DA2245
:10480000FF0ED515996F000ED6159A6F000ED715AD
:104810009B6F000ED8159C6F99C09CF09B6B9A6B98
:10482000996B10EED5F0000EE6149D6FFF0EE614A6
:104830009E6F000EE6149F6F000EE614A06F9FC0DF
:10484000A0F09EC09FF09DC09EF09D6BD5C0A1F0D2
:10485000D6C0A2F0D7C0A3F0D8C0A4F0A2C0A1F0E7
:10486000A3C0A2F0A4C0A3F0A46B000EA115A56F75
:10487000FF0EA215A66F000EA315A76F000EA415BC
:10488000A86FD5C0A9F0D6C0AAF0D7C0ABF0D8C0E9
:10489000ACF0190E05D0D890AC33AB33AA33A933A2
:1048A000E82EF9D7FF0EA915AD6F000EAA15AE6F51
:1048B000000EAB15AF6F000EAC15B06FA551AD116A
:1048C000B16FA651AE11B26FA751AF11B36FA8511E
:1048D000B011B46F9D51B111B56F9E51B211B66F49
:1048E0009F51B311B76FA051B411B86F9951B51161
:1048F000B96F9A51B611BA6F9B51B711BB6F9C51EA
:10490000B811BC6FDE50B9192DE1DE50BA192AE199
:10491000DE50BB1927E1DE50BC19D8A423D020EE0D
:104920000AF0C551D926C651DA22DE50C9191AE15A
:10493000DE50CA19D8A416D020EE0CF0C551D926E5
:10494000C651DA22000EDF6E20EECFF0C5C0E1FFC7
:10495000C6C0E2FF050EDBCFE3FFE806FCE2010E76
:10496000BF6F08D00D0EC527000EC623C307C35165
:10497000D8A440D704010051011102110311D8B489
:104980001200FF0E0001DF15956F000EE015966F07
:10499000000EE115976F000EE215986F95C098F024
:1049A000976B966B956B20EEDFF0000EDE14996F1F
:1049B000FF0EDE149A6F000EDE149B6F000EDE14E5
:1049C0009C6F9BC09CF09AC09BF099C09AF0996B29
:1049D000DFC09DF0E0C09EF0E1C09FF0E2C0A0F01B
:1049E0009EC09DF09FC09EF0A0C09FF0A06B000EE7
:1049F0009D15A16FFF0E9E15A26F000E9F15A36F50
:104A0000000EA015A46FDFC0A5F0E0C0A6F0E1C0C5
:104A1000A7F0E2C0A8F0190E05D0D890A833A733AC
:104A2000A633A533E82EF9D7FF0EA515A96F000E02
:104A3000A615AA6F000EA715AB6F000EA815AC6FD8
:104A4000A151A911AD6FA251AA11AE6FA351AB1123
:104A5000AF6FA451AC11B06F9951AD11B16F9A51B4
:104A6000AE11B26F9B51AF11B36F9C51B011B46FC7
:104A70009551B111B56F9651B211B66F9751B311EF
:104A8000B76F9851B411B86F040100510001B51906
:104A90000FE1040101510001B6190AE104010251BC
:104AA0000001B71905E1040103510001B819D8A4A8
:104AB0001200BF51D8A4D3D0000EC56F0E0EC66F22
:104AC000000EC16F0E0EC26F080EC46F20EE0CF008
:104AD000C151D926C251DA2210EE0CF0C551E1269F
:104AE000C651E222DE50E65CD8B004D0C1C0C5F0A9
:104AF000C2C0C6F00D0EC127000EC223C407C451A8
:104B0000D8A4E4D720EE0CF0C551D926C651DA223C
:104B1000000EDF6E20EECFF0C5C0E1FFC6C0E2FFA1
:104B2000050EDBCFE3FFE806FCE2FF0ED515956F1F
:104B3000000ED615966F000ED715976F000ED8157C
:104B4000986F95C098F0976B966B956B20EED5F0AB
:104B5000000EDE14996FFF0EDE149A6F000EDE1445
:104B60009B6F000EDE149C6F9BC09CF09AC09BF064
:104B700099C09AF0996BD5C09DF0D6C09EF0D7C071
:104B80009FF0D8C0A0F09EC09DF09FC09EF0A0C036
:104B90009FF0A06B000E9D15A16FFF0E9E15A26FDA
:104BA000000E9F15A36F000EA015A46FD5C0A5F031
:104BB000D6C0A6F0D7C0A7F0D8C0A8F0190E05D06F
:104BC000D890A833A733A633A533E82EF9D7FF0E24
:104BD000A515A96F000EA615AA6F000EA715AB6F3D
:104BE000000EA815AC6FA151A911AD6FA251AA1169
:104BF000AE6FA351AB11AF6FA451AC11B06F99510F
:104C0000AD11B16F9A51AE11B26F9B51AF11B36F2D
:104C10009C51B011B46F9551B111B56F9651B2114D
:104C2000B66F9751B311B76F9851B411B86F20EEAA
:104C300006F0C551D926C651DA22B5C0DEFFB6C08E
:104C4000DEFFB7C0DEFFB8C0DEFF20EE0AF0C551C0
:104C5000D926C651DA22C9C0DEFFCAC0DDFFCE05A3
:104C6000CD11D8A41200CF0E726F736B080E756F42
:104C7000060E746FCCEC50F00001C06FC005D8A4D4
:104C8000120020EECFF010EED9F0050EDBCFE3FFDF
:104C9000E806FCE2CF0E8A6F8B6BAA0E8C6F060EB5
:104CA0008D6F000E8F6F060E8E6FE8ECC1F0D5C0D1
:104CB000DFF0D6C0E0F0D7C0E1F0D8C0E2F0FF0EE0
:104CC000040100150001956F000E0401011500019B
:104CD000966F000E040102150001976F000E04018B
:104CE00003150001986F95C098F0976B966B956BC4
:104CF000000E040100150001996FFF0E040101155B
:104D000000019A6F000E0401021500019B6F000E56
:104D10000401031500019C6F9BC09CF09AC09BF09E
:104D200099C09AF0996B000E0401011500019D6F66
:104D3000FF0E0401021500019E6F000E0401031511
:104D400000019F6F0401035100019D11A06F000E2F
:104D50009E11A16F000E9F11A26FA051A36FA151D0
:104D6000A46FA251A56FA66B9951A311A76F9A5179
:104D7000A411A86F9B51A511A96F9C51A611AA6FF0
:104D80009551A711D56F9651A811D66F9751A911BA
:104D9000D76F9851AA11D86F020ECE6F000ECD6F4B
:104DA000C70E8E6F8F6B000E916F1C0E906F28ECEC
:104DB000BBF0B3EC91F01200000E0301196F1CD090
:104DC000010E0301216F000E1E6F12D0000E0301B1
:104DD000216F010E1E6F05D0236F1DD0000E030141
:104DE000216F010E226F010EF7D7000E0301216F14
:104DF000000E226F000EF0D704015451000AD8B4FF
:104E0000DFD7010AD8B4E2D7030AD8B4E7D7010A3A
:104E1000D8B4EBD7D5D72151D8A409D01E51D8A4E6
:104E200006D02251D8A403D02351D8B412002CEEBE
:104E3000B9F013EE29F02F0EDBCFE3FFE806FCE21A
:104E4000D3C549F3D4C54AF3D5C54BF3D6C54CF306
:104E50000201C3BF83D2C35104E1F10EC25DD8A0E9
:104E60007DD212ECC3F00001600503E1020E61196E
:104E7000D8A474D260ECC9F0060AD8A46FD260EC52
:104E8000C9F0D0ECB1F0D351000160190FE1050178
:104E9000D451000161190AE10501D55100016219DF
:104EA00005E10501D65100016319D8A457D212ECCF
:104EB000C3F012ECC3F0D0ECB1F0D0ECB1F060C0B4
:104EC00029F361C02AF362C02BF363C02CF3030102
:104ED000292907E12A2905E12B2903E12C29D8B446
:104EE0003DD2290506E17F0E2C192A112B11D8B4C9
:104EF00035D2D0ECB1F060C01AF361C01BF362C0D0
:104F00001CF363C01DF303011A2907E11B2905E106
:104F10001C2903E11D29D8B421D21A0506E17F0E10
:104F20001D191B111C11D8B419D2D0ECB1F0000E10
:104F30000001606F030E616F000E636F100E626FF1
:104F4000CBECB8F0000E0001606F030E616FAA0E8B
:104F5000626F060E636F000E656F060E646F03ECE2
:104F60009BF060516111D8B41CD0000E606F030E2D
:104F7000616FF30E626F210E636F000E656F060E98
:104F8000646F03EC9BF060516111D8B40AD0000E3D
:104F90008A6F030E8B6FF5ECC0F08A518B11D8A489
:104FA0001200000E616F400E606F67ECC5F0000EDE
:104FB0000001616F800E606F67ECC5F0D0ECB1F05E
:104FC000630E0001601909E1530E611906E1820EBA
:104FD000621903E1630E6319D8A4C0D10201100E57
:104FE000C227FF0EC3231DD160ECC9F00301186F67
:104FF00060ECC9F00301286F28510201C46FC56B32
:10500000020EC427000EC523C451C25FC551C35B45
:10501000F0D0D0ECB1F060C02DF361C02EF362C0CF
:105020002FF363C030F3FDD0D0ECB1F060C031F3AA
:1050300061C032F362C033F363C034F3F2D0000EC8
:105040001F6F25D0D0ECB1F060C010F361C011F338
:1050500062C012F363C013F3020E03011F6115D087
:105060001F51040D0C0EF326000EF422290EF3241A
:10507000D96E030EF420DA6E10C3DEFF11C3DEFF1B
:1050800012C3DEFF13C3DEFF1F2B040E285F040EC6
:105090002861D8D7C6D0000E206F25D0D0ECB1F053
:1050A00060C014F361C015F362C016F363C017F358
:1050B000020E0301206115D02051040D140EF326B9
:1050C000000EF422290EF324D96E030EF420DA6EBA
:1050D00014C3DEFF15C3DEFF16C3DEFF17C3DEFFFA
:1050E000202B040E285F040E2861D8D79AD0030E17
:1050F000286597D0D0ECB1F060C024F361C025F3EF
:1051000062C026F363C027F324C3C4F225C3C5F2EB
:1051100026C3C6F227C3C7F20201D890C733C633ED
:10512000C533C433C4C24DF3C5C24EF3C6C24FF338
:10513000C7C250F34DC351F34EC352F34FC353F3A1
:1051400050C354F34DC3C4F24EC3C5F24FC3C6F2AD
:1051500050C3C7F2D890C733C633C533C433C4C2B3
:1051600024F3C5C225F3C6C226F3C7C227F3030141
:10517000245151272551522326515323275154237B
:1051800024C3C4F225C3C5F226C3C6F227C3C7F29F
:105190000201D890C733C633C533C433C4510301A9
:1051A00051270201C551030152230201C6510301D7
:1051B00053230201C75103015423040E0301285F46
:1051C00030D0D0ECB1F060C055F361C056F362C08E
:1051D00057F363C058F3F1D760ECC9F00301196FBE
:1051E00028071FD028C360F00001616B67ECC5F091
:1051F00018D003011851010AD8B40BD7020AD8B449
:1052000013D7050AD8B41BD72C0AD8B444D7190A27
:10521000D8B46DD7060AD8B4DFD7030AD8B4D1D72B
:10522000E1D70201C3BF9AD0C35103E1C205D8A0A0
:1052300095D0DAD62151D8B40ED023EE29F015EE50
:10524000B3F02F0EDBCFE3FFE806FCE2C7ECCFF0B4
:10525000010E0401546F03011E51D8B41200BBECBF
:10526000CFF012002351D8B412004DC3D7F54EC36E
:10527000D8F54FC3D9F550C3DAF551C3DBF552C3A6
:10528000DCF553C3DDF554C3DEF5B3C500F4B4C596
:1052900001F4B5C502F4B6C503F4BFC504F4C0C536
:1052A00005F4C1C506F4C2C507F4C3C508F4C4C5F6
:1052B00009F4C5C50AF4C6C50BF4BBC510F4BCC5DA
:1052C00011F4BDC512F4BEC513F4CFC514F4D0C596
:1052D00015F4D1C516F4D2C517F4B7C50CF4B8C58A
:1052E0000DF4B9C50EF4BAC50FF40501C751C811C4
:1052F000C911CA11D8B416D0C7C518F4C8C519F455
:10530000C9C51AF4CAC51BF4CB51CC11CD11CE11AD
:10531000D8B408D0CBC51CF4CCC51DF4CDC51EF443
:10532000CEC51FF4030E0401546F12002251D8B4ED
:105330001200040E0501D76F000ED86F000ED96F52
:10534000000EDA6F020EDB6F000EDC6F000EDD6FF9
:10535000000EDE6F000E0401546F1200030119519C
:10536000020AD8B467D7070AD8B47CD7030AD8A4EE
:105370001200DCD7000E0301F66F000EF56F92EC01
:10538000C4F00301F76FF7C36EF000016F6B000EFE
:10539000716F000E706FE4ECBDF06EC0F8F36FC07B
:1053A000F9F30301F851F911D8A41200720E0001AB
:1053B000606F050E616F000E636F140E626FCBECB1
:1053C000B8F0050172390F0B040AD8A41200FF0EC1
:1053D00082150201D56F000E050183150201D66FFB
:1053E000000E050184150201D76F000E0501851519
:1053F0000201D86FD5C2D8F2D76BD66BD56B25EE2C
:1054000082F0000EDE14D96FFF0EDE14DA6F000E8C
:10541000DE14DB6F000EDE14DC6FDBC2DCF2DAC2FE
:10542000DBF2D9C2DAF2D96B82C5DDF283C5DEF2D6
:1054300084C5DFF285C5E0F2DEC2DDF2DFC2DEF256
:10544000E0C2DFF2E06B000EDD15E16FFF0EDE154E
:10545000E26F000EDF15E36F000EE015E46F82C50A
:10546000E5F283C5E6F284C5E7F285C5E8F2190ED8
:1054700005D0D890E833E733E633E533E82EF9D7A3
:10548000FF0EE515E96F000EE615EA6F000EE71551
:10549000EB6F000EE815EC6FE151E911ED6FE25191
:1054A000EA11EE6FE351EB11EF6FE451EC11F06F85
:1054B000D951ED11F16FDA51EE11F26FDB51EF11AD
:1054C000F36FDC51F011F46FD551F1110501826FCA
:1054D0000201D651F2110501836F0201D751F31178
:1054E0000501846F0201D851F4110501856FFF0E8B
:1054F0007E150201D56F000E05017F150201D66FE2
:10550000000E050180150201D76F000E05018115FF
:105510000201D86FD5C2D8F2D76BD66BD56B25EE0A
:105520007EF0000EDE14D96FFF0EDE14DA6F000E6F
:10553000DE14DB6F000EDE14DC6FDBC2DCF2DAC2DD
:10554000DBF2D9C2DAF2D96B7EC5DDF27FC5DEF2BD
:1055500080C5DFF281C5E0F2DEC2DDF2DFC2DEF23D
:10556000E0C2DFF2E06B000EDD15E16FFF0EDE152D
:10557000E26F000EDF15E36F000EE015E46F7EC5ED
:10558000E5F27FC5E6F280C5E7F281C5E8F2190EC3
:1055900005D0D890E833E733E633E533E82EF9D782
:1055A000FF0EE515E96F000EE615EA6F000EE71530
:1055B000EB6F000EE815EC6FE151E911ED6FE25170
:1055C000EA11EE6FE351EB11EF6FE451EC11F06F64
:1055D000D951ED11F16FDA51EE11F26FDB51EF118C
:1055E000F36FDC51F011F46FD551F11105017E6FAD
:1055F0000201D651F21105017F6F0201D751F3115B
:105600000501806F0201D851F4110501816F7E29D7
:1056100007E17F2905E1802903E18129D8B412003F
:10562000040100510501821910E104010151050135
:1056300083190BE1040102510501841906E10401FB
:10564000035105018519D8B4A4D082518311841166
:105650008511D8B49ED0822907E1832905E18429E8
:1056600003E18529D8B495D0825183118411851125
:10567000D8B429D0FF0E040100110201D56FFF0E2E
:10568000040101110201D66FFF0E04010211020193
:10569000D76F000E040103110201D86F050182517A
:1056A0000201D51910E1050183510201D6190BE160
:1056B000050184510201D71906E105018551020156
:1056C000D819D8B466D0050182518311841185118F
:1056D000D8B429D0FF0E040100110201D56FFF0ECE
:1056E000040101110201D66F000E04010211020132
:1056F000D76F000E040103110201D86F050182511A
:105700000201D51910E1050183510201D6190BE1FF
:10571000050184510201D71906E1050185510201F5
:10572000D819D8B436D0050182518311841185115E
:10573000D8B426D0FF0E040100110201D56F040178
:1057400001510201D66F040102510201D76F040119
:1057500003510201D86F050182510201D51910E1F0
:10576000050183510201D6190BE1050184510201A3
:10577000D71906E1050185510201D819D8B409D01D
:105780000501820505E1E00E851983118411D8A475
:105790001200050174510201D66FD56B25EE74F02D
:1057A000DECFD7F2DDCFD8F2D8C2D7F2D86BFF0E5A
:1057B000D717000ED817D551D7110501746F020104
:1057C000D651D8110501756F72510F0B0201D56FBB
:1057D000D890D537D890D5350301F76F05017251B0
:1057E0000F0B0201D56F050ED56101D01200050126
:1057F00072510F0B0201D56F050ED5657BD0EC0EF3
:105800000301F7250001606F616BFF0E612367ECF8
:10581000C5F070D08251831184118511D8B4120063
:105820000301F7510501745D0301F56F0501755121
:10583000D8A075050301F66FF5C36EF0F6C36FF0DF
:10584000000E0001716F000E706FE4ECBDF06EC0D1
:10585000F8F36FC0F9F30301F851F911D8A408D097
:10586000720E0001F16F050EF26FADEC8AF01200BE
:10587000CD0E00018F6F030E906F720E916F260E8A
:10588000926FF8C393F0F9C394F085ECC5F0120061
:105890000301F7510501745D0301F56F05017551B1
:1058A000D8A075050301F66FF5C360F0F6C361F08B
:1058B000FEEC90F060C0F8F361C0F9F3F5C36EF050
:1058C000F6C36FF0F8C370F0F9C371F0E4ECBDF00B
:1058D0006EC0F8F36FC0F9F3F8C3CCF2F9C3CDF2A0
:1058E00031EC5AF0120074C560F075C561F067ECD8
:1058F000C5F0120005017B51010AD8B48BD7070A05
:10590000D8B41200170AD8B4C3D7EDD7000E0101DE
:10591000696F000E6B6F000E6A6F000E626F000EF3
:10592000616F400E0001606F010E616F000E636FCA
:10593000000E626F000E656F200E646FD1ECC0F038
:10594000D8C0D9FFD9C0DAFFDF500101606F67D23C
:10595000000120EE01F0D851D926D951DA22DECF4C
:1059600065F1DDCF66F1140EDA258E6F000EDB21B6
:105970008F6F030ED825906F000ED921916F65C1EE
:1059800092F066C193F0DDECA5F052D0000120EE5C
:1059900001F0D851D926D951DA22DECF65F1DDCF19
:1059A00066F1400E8E6F010E8F6F030ED825906F3B
:1059B000000ED921916F65C192F066C193F0DDECC4
:1059C000A5F0400E8E6F010E8F6F890E906F210E25
:1059D000916F890E8A6F210E8B6FF5ECC0F08AC033
:1059E00092F08BC093F0CBEC97F08E518F11D8A42E
:1059F00004D0010E04017C6F1BD0400E8E6F010E8F
:105A00008F6F040E906F220E916F040E8A6F220E1C
:105A10008B6FF5ECC0F08AC092F08BC093F0CBECAA
:105A200097F08E518F11D8A405D0010E04017B6F21
:105A3000010EF2D1400E896F010E8A6FDDEC87F006
:105A400089C06AF18AC06BF101016BBFA7D0000168
:105A500020EE3DF0DA51D926DB51DA22050EDF6463
:105A60000BD09CD0000120EE43F0DA51D926DB5157
:105A7000DA22850EDF6EE7D16C0E606F010E616F6A
:105A80005FC562F060C563F06AC164F06BC165F028
:105A900018EC9FF025D0000120EE3DF0DA51D92618
:105AA000DB51DA22DF50DC6FDC51DA25DD6F000ECE
:105AB000DB21DE6F1B0EDD25D96E000EDE21DA6ED6
:105AC00063C1DFFF20EE3DF0DA51D926DB51DA2247
:105AD000DF2A63C15FF564C160F5010E0101696FE2
:105AE0006C0E0001BE6F010EBF6FA3EC90F0BEC044
:105AF00063F1BFC064F101016329CDE16429D8B429
:105B0000A2D1C9D7000120EE03F0D851D926D9512E
:105B1000DA2210EE22F038D1000120EE01F0D85147
:105B2000D926D951DA22DECF65F1DDCF66F1400EFC
:105B30008E6F010E8F6F030ED825906F000ED92146
:105B4000916F65C192F066C193F0DDECA5F0400E57
:105B50006B6F010E6C6F580E6D6F2B0E6E6FECEC51
:105B60008FF06BC067F16CC068F1FFD0400E000190
:105B7000896F010E8A6FDDEC87F089C06AF18AC0F7
:105B80006BF101016BBF0AD0000120EE3EF0DA514B
:105B9000D926DB51DA22050EDF6404D0000E0101A4
:105BA000696F60D7000E6B6F000E6C6F580E6D6FD3
:105BB0002B0E6E6FECEC8FF06BC067F16CC068F170
:105BC000010167516811D8B4D0D06AC1CAF06BC165
:105BD000CBF0C6ECC1F0E806D8A45CD067C189F070
:105BE00068C18AF0DDEC87F089C061F18AC062F19A
:105BF00020EE3EF0DA51D926DB51DA22DF50DC6F9D
:105C0000DC51050DDAC0DDF0DBC0DEF0F350DD273E
:105C1000F450DE23240EDD25D96E000EDE21DA6E6F
:105C20006AC1DFFF61C1DCF062C1DDF0000EDDBFE3
:105C3000FF0EDE6FDF6F20EE3EF0DA51D926DB512A
:105C4000DA22DF50E06FE051050DDAC0E1F0DBC091
:105C5000E2F0F350E127F450E223250EE125D96E5E
:105C6000000EE221DA6EDCC0DEFFDDC0DEFFDEC04A
:105C7000DEFFDFC0DEFF20EE3EF0DA51D926DB5139
:105C8000DA22DF2A000E0101676F000E686F010E35
:105C9000696F6BD067C18EF068C18FF019ECC1F0ED
:105CA0000009D8B441D020EE3EF0DA51D926DB51BC
:105CB000DA22DF50DC6FDC51050DDAC0DDF0DBC02D
:105CC000DEF0F350DD27F450DE23240EDD25D96EFF
:105CD000000EDE21DA6E6AC1DFFF67C16CF068C1B9
:105CE0006DF0E5EC73F020EE3EF0DA51D926DB5191
:105CF000DA22DF50DC6FDC51050DDAC0DDF0DBC0ED
:105D0000DEF0F350DD27F450DE23250EDD25D96EBD
:105D1000000EDE21DA6E6CC0DEFF6DC0DEFF6EC0ED
:105D2000DEFF6FC0DEFFA7D720EE3EF0DA51D926A6
:105D3000DB51DA22DF50DC6FDC51050DDAC0DDF01B
:105D4000DBC0DEF0F350DD27F450DE23250EDD2529
:105D5000D96E000EDE21DA6EFF0EDE6EFF0EDE6EF5
:105D6000FF0EDE6EFF0EDD6E86D7010167516811F2
:105D7000D8B469D0FBD6000120EE03F0D851D92663
:105D8000D951DA2210EE23F0DA51E126DB51E2227A
:105D9000DFCFE7FF4DD604017C51D8B433D00001EA
:105DA00020EE01F0D851D926D951DA22DECF65F1A3
:105DB000DDCF66F120EE0AF0DA51D926DB51DA2286
:105DC000DECF78F0DECF79F0DECF7AF0DECF7BF079
:105DD000030ED8257C6F000ED9217D6F65C17EF042
:105DE00066C17FF0E0EC78F00101696F6951D8A4D9
:105DF0002AD0000120EE43F0DA51D926DB51DA2215
:105E0000820E38D6000120EE43F0DA51D926DB515C
:105E1000DA22820EDF6E000E0101696F14D060512C
:105E2000030AD8B495D5080AD8B4B0D5070AD8B4AF
:105E300069D6030AD8B470D61E0AD8B49CD7060A0D
:105E4000D8B4A9D7DFD7010169511200000EF86F4D
:105E5000010EA86F000E0401796F000E786F01012A
:105E600020EE0CF09851D9269951DA22DE28D8B4C8
:105E700056D2000E0001606F0F0E616F000E636F4F
:105E8000000E626F000E656F4B0E646FD1ECC0F0B8
:105E9000010120EE3EF09C51D9269D51DA22DF50BF
:105EA000D8B40FD098C1D8F099C1D9F09AC1DAF01E
:105EB0009BC1DBF09CC1DCF09DC1DDF09BEC37F0B9
:105EC000A86FA851D8B419D204017951D8A4FDD132
:105ED000010120EE0AF09851D9269951DA22DE50BC
:105EE000DE10D8A443D020EE07F09851D92699515E
:105EF000DA22DE50DE10D8B439D09AC17CF09BC1D2
:105F00007DF05EECCAF07CC0A6F17DC0A7F1C00EAA
:105F1000606F010E616F9AC162F09BC163F01CEC6F
:105F2000A7F0000E0101A96F17D0C00E0001BE6FCF
:105F3000010EBF6FA3EC90F0BEC0A2F1BFC0A3F1F1
:105F4000000E04017925D96EDA6A0F0EDA22A2C199
:105F5000DFFF792B0101A92BA9519E6F9F6BA651E1
:105F60009E5DA7519F59D8B0B0D1DFD7000E040174
:105F70007925D96EDA6A0F0EDA229AC1DFFF792B02
:105F8000A4D120EE0EF09C51D9269D51DA22450E67
:105F9000DF6E20EE0FF09C51D9269D51DA22020EC1
:105FA000DF6E20EE23F09C51D9269D51DA22DF507E
:105FB000AFECC2F00009D8B41AD09CC1EDF09DC17D
:105FC000EEF043ECC7F00101F86FF805D8A41AD041
:105FD00020EE0AF09851D9269951DA22DECFE8F066
:105FE000DDCFE9F079C4EAF095ECC3F00BD0010104
:105FF00020EE43F09C51D9269D51DA228F0EDF6EA0
:10600000000E12000101F805D8A483D0000EAA6F7B
:1060100071D0AC0E00016E6F010E6F6F000E0101AA
:10602000AA25D96EDA6A0F0EDA22DF509E6F9E51D2
:106030000001706F716BDAECB0F0010120EE0CF032
:106040009851D9269951DA22DF509E6F9E51020D48
:10605000BA0EF324D96E060EF420DA6E10EE03F0B9
:10606000DE50E126DD50E222E650E610E610D8B41C
:1060700036D0B6C1F9F0B7C1FAF0BBC1FBF0BCC174
:10608000FCF020EE41F09C51D9269D51DA22DF50E0
:106090000001FD6F010120EE0CF09851D9269951B5
:1060A000DA22DF509E6F9E51020DBA0EF324D96E94
:1060B000060EF420DA6E10EE03F0DE50E126DD501D
:1060C000E22201D80AD00500FA6EE650FD6EE650D5
:1060D000FE6EE650FF6EFA501200010109D020EE6C
:1060E00043F09C51D9269D51DA22850EDF6E000EB9
:1060F000F86FAA2B040179510101AA5DD8A089D7B4
:10610000F805D8A403D0D8ECCFF009D1A1ECCCF09D
:10611000010120EE43F09C51D9269D51DA22850ED3
:10612000DF6E000EF86FFBD020EE0EF09C51D926EA
:106130009D51DA22440EDF6E20EE0FF09C51D926DD
:106140009D51DA22020EDF6E000EF86F20EE22F073
:106150009C51D9269D51DA22DF50AFECC2F00009E4
:10616000D8B445D7000E0101AB6F6AD020EE22F003
:106170009C51D9269D51DA22DF500001F16F0101B7
:1061800020EE41F09C51D9269D51DA22DF5009ECD6
:10619000C8F0F1C0A4F1F2C0A5F10101A451A5110C
:1061A000D8B44DD0AC0E00016E6F010E6F6F000EB3
:1061B0000101AB25D96EDA6A0F0EDA22DF509E6F2D
:1061C0009E510001706F716BDAECB0F0B6C126F130
:1061D000B7C127F1BBC128F1BCC129F1A4C12AF183
:1061E000010120EE0CF09851D9269951DA22DF50A6
:1061F0009E6F9E51020DBA0EF324D96E060EF42046
:10620000DA6E10EE06F0DE50E126DD50E22201D813
:106210000AD00500FA6EE650FD6EE650FE6EE650BE
:10622000FF6EFA5012000101F86F20EE41F09C5110
:10623000D9269D51DA22000EDE6E000EDD6EAB2BEC
:10624000040179510101AB5DD8A090D7F805D8A41D
:106250000FD0010E0301FA6F9CC1E9F09DC1EAF075
:10626000B3EC80F00101F86FF805D8B4D8ECCFF0AA
:106270000101F805D8B453D04AD020EE0EF09C515D
:10628000D9269D51DA22440E4BD720EE0EF09C51B8
:10629000D9269D51DA22410E43D720EE0EF09C51B3
:1062A000D9269D51DA22420E3BD720EE43F09C5175
:1062B000D9269D51DA22850EDF6E20EE0FF09C511B
:1062C000D9269D51DA22020E2BD7010120EE0EF0C5
:1062D0009C51D9269D51DA22DF50010AD8B451D6FB
:1062E000030AD8B4D2D7010AD8B41ED7070AD8B443
:1062F000D4D7010AD8B4C1D7D8D7000EF86F20EE92
:106300000FF09C51D9269D51DA22020EDF6E20EE4D
:1063100043F09C51D9269D51DA22850EDF6E010192
:10632000F851120082ECC1F0E5ECCFF09DEC75F075
:10633000CBECCCF0EBC560F0ECC561F0B1ECCFF08C
:106340000C0E0001606F280E616F8EECCFF0EE0E28
:10635000606F2A0E616FACECCFF0EE0E606F280E0E
:10636000616FA7ECCFF01C0E606F280E616FA2EC7E
:10637000CFF0FA0E606F280E616F84ECCFF0570EED
:10638000606F2A0E616F89ECCFF0940E606F280E5B
:10639000616F98ECCFF04D0E606F2A0E616F93EC39
:1063A000CFF0E20E606F280E616F9DECCFF0D08EC3
:1063B000F28EF28C8DECCEF0F30E0001606F040EC5
:1063C000616FF7ECB8F004017E91910EF66E1D0E30
:1063D000F76E000EF86E0900F5CFFEF20900F5CF5A
:1063E000FFF20201D890FF33FE33D890FF33FE3323
:1063F000FEC235F4FFC236F481B003D0010E0C01A9
:10640000906F000E0001716F010E706F90CC72F0F2
:106410004CECC2F00401F76F1CEC8EF00CECB1F008
:1064200012EC65F00401F751D8B420D07E89AB0E90
:1064300000018F6F250E906F80ECC8F085ECCEF0D8
:10644000B0EC3FF0FEC0F1F4FFC0F2F40401F1291A
:1064500003E1F229D8B407D0000E0001A16F010EAC
:10646000A06F0CECCBF004017E9909D0930E0001D3
:106470008F6F250E906F80ECC8F039ECCFF0CFEC29
:1064800096F01FEC98F0F30E01018C6F290E8D6FC2
:10649000040E8E6FD9EC52F0DE0E01018C6F2A0EC5
:1064A0008D6F050E8E6FD9EC52F0E60E01018C6FE8
:1064B0002A0E8D6F050E8E6FD9EC52F0E3ECCFF003
:1064C000F29E7CEC71F0A9EC9FF0F28E0E0E0201B0
:1064D000FE6F850EE82EFED7FE2FFCD700D008EC0D
:1064E0005BF032EC41F086EC9EF005ECCCF0EBC5B5
:1064F00060F0ECC561F0B1ECCFF000C4F8F401C479
:10650000F9F402C4FAF403C4FBF40401F851F911DC
:10651000FA11FB11D8B4D4D77E81D2ECBBF0605114
:106520006111D8A4FED0CCD7FF0E0001E96FFF0E99
:10653000EA6FFF0EEB6FFF0EEC6FFF0EEE6FF70EC4
:10654000ED6FB1ECC4F00C01E92BFDD01C0E000185
:106550008F6F230E906FE9CC91F0926B80ECC8F0B6
:10656000F30E01018C6F290E8D6F040E8E6FD9EC26
:1065700052F0FD0E01018C6F290E8D6F040E8E6F8F
:10658000D9EC52F0030E00018F6F240E906F80EC57
:10659000C8F0D9D76E0E00018F6F230E906FE9CC33
:1065A00091F0926B80ECC8F0DE0E01018C6F2A0E28
:1065B0008D6F050E8E6FD9EC52F06C0E00018F6F4F
:1065C000240E906F80ECC8F0BED7C40E00018F6F10
:1065D000220E906FE9CC91F0926B80ECC8F0FD0E2A
:1065E000E26F290EE36F040EE46F5DEC39F07A0E72
:1065F0008F6F250E906F80ECC8F0A5D7F00E0001CC
:106600008F6F220E906FE9CC91F0926B80ECC8F006
:10661000FD0E01018C6F290E8D6F040E8E6FD9EC6B
:1066200052F0070E01018C6F2A0E8D6F040E8E6FD3
:10663000D9EC52F0110E01018C6F2A0E8D6F040EF1
:106640008E6FD9EC52F01B0E01018C6F2A0E8D6FEC
:10665000040E8E6FD9EC52F0250E01018C6F2A0EBC
:106660008D6F040E8E6FD9EC52F02F0E01018C6FDE
:106670002A0E8D6F040E8E6FD9EC52F0390E010187
:106680008C6F2A0E8D6F040E8E6FD9EC52F0430E74
:1066900001018C6F2A0E8D6F040E8E6FD9EC52F0B3
:1066A0004E0E01018C6F290E8D6F040E8E6FD9EC8A
:1066B00052F0590E01018C6F290E8D6F040E8E6FF2
:1066C000D9EC52F0640E01018C6F290E8D6F040E0F
:1066D0008E6FD9EC52F06F0E01018C6F290E8D6F09
:1066E000040E8E6FD9EC52F07A0E01018C6F290ED8
:1066F0008D6F040E8E6FD9EC52F0850E01018C6FF8
:10670000290E8D6F040E8E6FD9EC52F0460E0001EB
:106710008F6F250E906F80ECC8F015D7010EE96FD2
:1067200012D00C01E951010AD8B4FED6030AD8B43C
:106730000DD7010AD8B42ED7070AD8B446D7010A14
:10674000D8B45CD7EBD7FF0E0001E96FFF0EEA6FFC
:10675000FF0EEB6FFF0EEC6FFF0EEE6FF70EED6F9F
:10676000B1ECC4F0BA0E8F6F230E906FFBC491F0A2
:10677000926BFAC493F0946BF9C495F0966BF8C4DD
:1067800097F0986B80ECC8F09BD60001CD6FF8D1E4
:10679000C5C0BFF0C6C0C0F0020EC16F4BECADF07B
:1067A000CE6FC5C0A7F0C6C0A8F0C7510B0D030E31
:1067B000F324A96F090EF420AA6F010EAB6FA1ECB0
:1067C000BCF0C7510B0D040EF3248E6F090EF4209C
:1067D0008F6FC60E906F270E916F000E936F010E94
:1067E000926FCBEC97F08E518F11D8B416D0C75161
:1067F0000B0D040EF3248E6F090EF4208F6F9A0E8A
:10680000906F260E916F000E936F010E926FCBEC7E
:1068100097F08E518F11D8A483D0C7510B0D030E62
:10682000F324D96E090EF420DA6EDF50C96FCA6BFB
:10683000C751020D350EF324D96E040EF420DA6E22
:10684000C9C0DEFFCAC0DDFFC751020D350EF324FB
:10685000D96E040EF420DA6EDECFC9F0DDCFCAF0B7
:10686000D890C937CA375F0EC925F66E1D0ECA21EA
:10687000F76EF86A000EF8220900F5CFCBF0090098
:10688000F5CFCCF0D890CC33CB33D890CC33CB33BE
:10689000C751020D350EF324D96E040EF420DA6EC2
:1068A000CBC0DEFFCCC0DDFFC7510B0D070EF324BC
:1068B000D96E090EF420DA6EDECF60F0DDCF61F024
:1068C000000E636F0A0E626FF3ECBCF060C031F42F
:1068D00061C032F40401336B346B0001C751020D07
:1068E000350EF324D96E040EF420DA6EC751020D72
:1068F0002D0EF324E16E040EF420E26EDE50E65C11
:10690000DE50E658D8B003D00401758102D00401EE
:1069100075833151321133113411D8A4CFEC9EF06C
:1069200004013E073FD1C5C0BFF0C6C0C0F0020E93
:10693000C16F4BECADF0CE6FC5C0A7F0C6C0A8F0DC
:10694000C7510B0D040EF324A96F090EF420AA6F92
:10695000070EAB6FA1ECBCF0C7510B0D040EF32476
:106960008E6F090EF4208F6FC60E906F270E916FF9
:10697000000E936F010E926FCBEC97F08E518F113A
:10698000D8B416D0C7510B0D040EF3248E6F090E28
:10699000F4208F6F9A0E906F260E916F000E936FFA
:1069A000010E926FCBEC97F08E518F11D8A436D098
:1069B000C7510B0D030EF324D96E090EF420DA6EC5
:1069C000DF50C96FCA6BC751020D350EF324D96E63
:1069D000040EF420DA6EC9C0DEFFCAC0DDFFC75165
:1069E000020D350EF324D96E040EF420DA6EDECFDC
:1069F000C9F0DDCFCAF0D890C937CA375F0EC925B4
:106A0000F66E1D0ECA21F76EF86A000EF822C75105
:106A1000020D350EF324D96E040E2ED0270EF66E1D
:106A20001E0EF76E000EF86EC751020D350EF324E0
:106A3000D96E040EF420DA6E0900F5CFDEFF0800EF
:106A4000F5CFDDFFC751020D350EF324D96E040ECC
:106A5000F420DA6EDECF60F0DDCF61F021ECC8F01B
:106A6000270EF66E1E0EF76E000EF86EC751020D61
:106A70002D0EF324D96E040EF420DA6E0900F5CF42
:106A8000DEFF0800F5CFDDFF4BD7C5C0BFF0C6C0A5
:106A9000C0F0020EC16F4BECADF0CE6FC5C0A7F0D9
:106AA000C6C0A8F0C7510B0D020EF324A96F090E42
:106AB000F420AA6F010EAB6FA1ECBCF031D7C5C0BA
:106AC000BFF0C6C0C0F0020EC16F4BECADF0CE6F90
:106AD000C7C060F0C8C061F0000E636F0B0E626F3C
:106AE000C0ECCAF0070E6025D96E090E6121DA6E7E
:106AF000000EDE6E000EDD6EC5C0A7F0C6C0A8F0A9
:106B0000C7510B0D070EF324A96F090EF420AA6FCD
:106B1000030EAB6FA1ECBCF003D7C5C0BFF0C6C07D
:106B2000C0F0020EC16F4BECADF0CE6FC7C060F08D
:106B3000C8C061F0000E636F0B0E626FC0ECCAF04C
:106B4000070E6025D96E090E6121DA6E000EDE6E29
:106B5000000EDD6EC5C0A7F0C6C0A8F0C7510B0D72
:106B6000050EF324A96F090EF420AA6F030EAB6F74
:106B7000A1ECBCF0D5D604013E070001CE6912D0CD
:106B80000001CD510D0AD8B480D7030AD8B400D67D
:106B9000010AD8B4C8D61D0AD8B491D7010AD8B40E
:106BA000BCD7E9D70001CE511200000E0001E96FF9
:106BB000F00E04012417000E0901CE6F000E000133
:106BC000E86F010120EE3DF0A451D926A551DA224B
:106BD000000EDF6E20EE3EF0A451D926A551DA2238
:106BE000000EDF6E20EE22F0A451D926A551DA2244
:106BF0003C0EDF6E20EE23F0A451D926A551DA22F7
:106C00003C0EDF6E240EA4250001606F000E010112
:106C1000A5210001616F000E636F000E626F000E10
:106C2000656F190E646FD1ECC0F01B0E0101A42535
:106C30000001606F000E0101A5210001616F000ECF
:106C4000636F000E626F000E656F050E646FD1EC0E
:106C5000C0F0D10E606F090E616F000E636F000E01
:106C6000626F000E656F200E646FD1ECC0F0010101
:106C700020EE40F0A451D926A551DA22000EDF6E95
:106C800020EE41F0A451D926A551DA22000EDE6E85
:106C9000000EDD6E000E0501606F000E5F6F000ECE
:106CA00004017C6F000E7B6F3ED160ECC9F0EA6F8F
:106CB0000101A607D8A0A7070001EA29D8B416D178
:106CC000D10E606F090E616F000E636F000E626F70
:106CD000000E656F200E646FD1ECC0F0EAC0E3F0E7
:106CE000E33B0F0EE3170F0EE317040124510001DD
:106CF000E319F00BE3190401246F24510F0B090170
:106D0000CE27EAC0E3F00F0E0001E317E33B0401D6
:106D100024510001E3190F0BE3190401246F2439F6
:106D20000F0B0901CF6F040124510F0B0D0AD8A4DA
:106D30000DD060ECC9F00401256F25510901CE2565
:106D4000CE6F0101A607D8A0A70715D024510F0BBD
:106D50000E0AD8A410D012ECC3F060C025F461C0B4
:106D600026F4040125510901CE25CE6F0101FE0E46
:106D7000A627FF0EA723040124390F0B0D0AD8A460
:106D800035D060ECC9F00401276FD10E0001606FAF
:106D9000090E616F040124390F0B0001E36FE35109
:106DA000040127250001626F636B6337CBECB8F0F9
:106DB0000901CF51040127250001E86FE8C0CFF990
:106DC000040124390F0B0001E36FE46B0401275128
:106DD0000001E327000EE423010EE327000EE42365
:106DE000E3510101A65F0001E45149D024390F0BA2
:106DF0000E0AD8A446D012ECC3F060C027F461C0DC
:106E000028F4D10E0001606F090E616F040124396E
:106E10000F0B0001E36FE351040127250001626FAE
:106E2000000E040128210001636FCBECB8F00401CF
:106E300027510901CF250001E66F040128510901FE
:106E4000D0210001E76FE6C0CFF9E7C0D0F9040117
:106E500024390F0B0001E36FE351040127250001E2
:106E6000E46F000E040128210001E56F020EE42703
:106E7000000EE523E4510101A65F0001E551010187
:106E800018D0D10E0001606F090E616F0401243922
:106E90000F0B0001E36FE351626F636BCBECB8F053
:106EA000040124390F0B0001E36FE3510101A65FD8
:106EB000000EA75BCE0E0001D86F090ED96FA4C1DA
:106EC000DAF0A5C1DBF086EC2CF00001E96FE951A6
:106ED000D8A403D0000EE96F2BD0010120EE3FF0C3
:106EE000A451D926A551DA22DF2A1DD0EA29D8A437
:106EF0001AD0010120EE40F0A451D926A551DA2282
:106F0000010EDF6E20EE41F0A451D926A551DA2200
:106F1000A6C1DEFFA7C1DDFF000EA76F000EA66FA2
:106F2000010E0001E96F0101A651A711D8A4BDD639
:106F30000001E9511200010E036F000E116F010EE6
:106F40000A6FA30E126F1F0E136F000120EE3EF0AA
:106F5000DC51D926DD51DA22DF500101026F760EB5
:106F60000001606F0A0E616F000E636F010E626FA9
:106F7000000E656F200E646FD1ECC0F0B00E606F34
:106F8000060E616FFF0E636F6269000E656F050E7E
:106F9000646FD1ECC0F06DD1600E0001606F010E26
:106FA000616F01011151050DDCC0DEF0DDC0DFF0C5
:106FB000F3500001DE27F450DF23240EDE25D96EC6
:106FC000000EDF21DA6EDF50E06FE051626F636B1D
:106FD0006BEC99F0600EBE6F010EBF6F5FEC8DF031
:106FE000BEC004F1BFC005F10B0E6E6F010E6F6FD6
:106FF00004C170F005C171F032ECB2F012C1F6FFBD
:1070000013C1F7FF000EF86E0800F550DE6FDF6B5E
:10701000010104510001DE1905E1010105510001E2
:10702000DF19D8A421D1280E606F010E616FDAC07C
:1070300062F0DBC063F00EC164F00FC165F054EC88
:10704000A1F0FBD0140E00016E6F010E6F6F00C136
:1070500070F001C171F0DAECB0F001011E511F11A6
:10706000D8B4EBD01151050DDCC0DEF0DDC0DFF08F
:10707000F3500001DE27F450DF23250EDE25D96E04
:10708000000EDF21DA6EDECF06F1DECF07F1DECFB4
:1070900008F1DECF09F120EE0AF0D851D926D951F6
:1070A000DA22DE50DE10D8A48AD01EC188F01FC1BB
:1070B00089F006C18AF007C18BF008C18CF009C1C4
:1070C0008DF0010E010112250001DE6F000E01019D
:1070D00013210001DF6FDEC0F6FFDFC0F7FF000EF7
:1070E000F86E01D80DD00500FA6E0900F550FD6E5E
:1070F0000900F550FE6E0900F550FF6EFA501200BF
:1071000001010A6F6DECAFF001010A05D8A437D078
:1071100012C1F6FF13C1F7FF000EF86E0800F5501C
:107120000001DE6FDF6B760EDE25D96E0A0EDF21E1
:10713000DA6E0AC1DFFF12C1F6FF13C1F7FF000EBE
:10714000F86EB00E04017825D96EDA6A060EDA22DE
:107150000800F5CFDFFF782B01011B511C11D8A4CB
:1071600007D021C160F022C161F0A4ECBEF065D06F
:1071700023C160F024C161F0A4ECBEF05ED012C166
:10718000F6FF13C1F7FF000EF86E0800F5507EEC15
:10719000BEF00009D8A451D012C1F6FF13C1F7FF09
:1071A000000EF86E0800F550DE6FDF6B760EDE2500
:1071B000D96E0A0EDF21DA6E0AC1DFFF3ED01EC192
:1071C00088F01FC189F006C18AF007C18BF008C1A1
:1071D0008CF009C18DF0010E010112250001DE6F56
:1071E000000E010113210001DF6FDEC0F6FFDFC0DA
:1071F000F7FF000EF86E01D80DD00500FA6E0900F9
:10720000F550FD6E0900F550FE6E0900F550FF6E59
:10721000FA501200E06F12C1F6FF13C1F7FF000E23
:10722000F86E0800F550E16FE26B760EE125D96E3D
:107230000A0EE221DA6EE0C0DFFF280E0001BE6F09
:10724000010EBF6FA3EC90F0BEC000F1BFC001F112
:107250000101002902E10129D8A4F4D6A30E126F7E
:107260001F0E136F112B05D0040E01011227000E03
:10727000132301010251115DD8A08ED6000E116FAB
:10728000760E1125D96EDA6A0A0EDA22DF50D8A4FA
:1072900003D0000E036F0CD0760E1125D96EDA6A7A
:1072A0000A0EDA22DF500317112B1F0E1165E8D7E3
:1072B0006DECAFF0010103511200000E02011E6FD0
:1072C000000E1D6F000E056F000E1C6F4D0E0001AD
:1072D000996F020E9A6FE2C089F0E3C08AF0DDEC8C
:1072E00087F089C09BF08AC09CF03DEC9EF011D0E5
:1072F00021C276F022C277F00001E45154ECC4F0D0
:10730000762903E17729D8B404D0010E0201056F74
:1073100010D04D0EBE6F020EBF6FA3EC90F0BEC03A
:1073200021F2BFC022F202012129E2E12229D8A4E0
:10733000DFD70505D8A470D1390E00016E6F020E9B
:107340006F6F21C270F022C271F0DAECB0F0510E12
:10735000996F2C0E9A6F83ECA9F099C000F29AC035
:1073600001F248C27CF049C27DF05EECCAF07CC0FC
:1073700006F27DC007F2020106510711D8A402D01F
:10738000010E1C6F850E0001606F020E616F48C216
:1073900062F049C263F01CECA7F0000E0201046F1A
:1073A00068D0850EBE6F020EBF6FA3EC90F0BEC01A
:1073B0001FF2BFC020F2250E6E6F020E6F6F1FC24C
:1073C00070F020C271F0DAECB0F002013151020D20
:1073D000BA0EF324D96E060EF420DA6E10EE0CF01D
:1073E000DE50E126DD50E222E650E610E610D8B489
:1073F00028D02FC2C3F030C2C4F0000E0001C66F07
:10740000000EC56F1FC2C7F002013151020DBA0E46
:10741000F324D96E060EF420DA6E10EE0CF0DE5076
:10742000E126DD50E22201D80AD00500FA6EE650CE
:10743000FD6EE650FE6EE650FF6EFA50120002013D
:107440001C6F2FC2A7F030C2A8F02AEC67F021C24F
:10745000ABF022C2ACF01FC2ADF020C2AEF050ECD7
:107460009BF01FC2C3F020C2C4F0BEEC99F0020131
:10747000042B04510001E56FE66B02010651000187
:10748000E55D020107510001E659D8A08AD7020143
:107490001C05D8A461D046C223F247C224F2850E4F
:1074A0000001606F020E616F23C262F024C263F0BC
:1074B0001CECA7F002014551020DBA0EF324D96E5F
:1074C000060EF420DA6E10EE0CF0DE50E126DD50F0
:1074D000E222E650E610E610D8B428D043C2C3F04A
:1074E00044C2C4F0000E0001C66F000EC56F21C279
:1074F000C7F002014551020DBA0EF324D96E060EF3
:10750000F420DA6E10EE0CF0DE50E126DD50E222BF
:1075100001D80AD00500FA6EE650FD6EE650FE6E08
:10752000E650FF6EFA50120002011C6F43C2A7F032
:1075300044C2A8F02AEC67F023C2ABF024C2ACF03E
:1075400021C2ADF022C2AEF050EC9BF048C2C3F0B5
:1075500049C2C4F0BEEC99F002011C05D8B41FD09A
:1075600051D039ECC8F00001E56FE55102011D6F03
:107570001E6B1D07D8A01E071D510DECC5F017D0BE
:10758000F1ECC7F00001E56FE55102011D6F1E6BC4
:107590001D07D8A01E071D51EFECC4F008D0000154
:1075A000E451040AD8B4DDD7010AD8B4E9D70201FE
:1075B0001D511E11D8A426D02351001904E12451D5
:1075C0000119D8B41FD0080E00016E6F020E6F6F44
:1075D00023C270F024C271F0DAECB0F015C202F2EE
:1075E00016C203F202C2ABF003C2ACF023C2ADF08C
:1075F00024C2AEF050EC9BF023C2C3F024C2C4F00E
:10760000BEEC99F09FEC81F039ECCFF03AC2B1F0CA
:107610003BC2B2F0DCEC8BF0E4EC83F0D8C0DEF0DF
:10762000D9C0DFF0DAC0E0F0DBC0E1F0A2ECC9F0D5
:107630001200000E01012A6F000E2B6F000E2C6F3E
:10764000000E2D6F000E0001606F000E616FF7ECF1
:10765000B8F060C024F161C025F162C026F163C0BA
:1076600027F1240E6E6F010E6F6F87EC4CF06EC029
:1076700040F16FC041F1000E606F010E616F000EAE
:10768000636F000E626F000E656F140E646FD1ECB5
:10769000C0F0000E8F6F010E906F5A0E916F280E82
:1076A000926F010120EE08F04051D9264151DA22B3
:1076B000DECFC3F0DDCFC4F0010E0001C325936F10
:1076C000000EC421946F010120EE06F04051D9262E
:1076D0004151DA22DECF95F0DDCF96F020EE0AF0B0
